{
  "_format": "hh-sol-artifact-1",
  "contractName": "Bridge",
  "sourceName": "contracts/bridge.sol",
  "abi": [
    {
      "inputs": [
        {
          "internalType": "address",
          "name": "initialOwner",
          "type": "address"
        }
      ],
      "stateMutability": "nonpayable",
      "type": "constructor"
    },
    {
      "inputs": [
        {
          "internalType": "address",
          "name": "owner",
          "type": "address"
        }
      ],
      "name": "OwnableInvalidOwner",
      "type": "error"
    },
    {
      "inputs": [
        {
          "internalType": "address",
          "name": "account",
          "type": "address"
        }
      ],
      "name": "OwnableUnauthorizedAccount",
      "type": "error"
    },
    {
      "anonymous": false,
      "inputs": [
        {
          "indexed": true,
          "internalType": "address",
          "name": "previousOwner",
          "type": "address"
        },
        {
          "indexed": true,
          "internalType": "address",
          "name": "newOwner",
          "type": "address"
        }
      ],
      "name": "OwnershipTransferred",
      "type": "event"
    },
    {
      "anonymous": false,
      "inputs": [
        {
          "indexed": false,
          "internalType": "uint256",
          "name": "prior",
          "type": "uint256"
        },
        {
          "indexed": false,
          "internalType": "uint256",
          "name": "present",
          "type": "uint256"
        }
      ],
      "name": "RequirementChange",
      "type": "event"
    },
    {
      "anonymous": false,
      "inputs": [
        {
          "indexed": true,
          "internalType": "address",
          "name": "token",
          "type": "address"
        },
        {
          "indexed": true,
          "internalType": "uint256",
          "name": "toChainID",
          "type": "uint256"
        },
        {
          "indexed": false,
          "internalType": "bool",
          "name": "enabled",
          "type": "bool"
        }
      ],
      "name": "TokenConfigChanged",
      "type": "event"
    },
    {
      "anonymous": false,
      "inputs": [
        {
          "indexed": false,
          "internalType": "uint256",
          "name": "fromChainID",
          "type": "uint256"
        },
        {
          "indexed": false,
          "internalType": "uint256",
          "name": "outId",
          "type": "uint256"
        },
        {
          "indexed": false,
          "internalType": "uint256",
          "name": "inId",
          "type": "uint256"
        },
        {
          "indexed": false,
          "internalType": "address",
          "name": "receiver",
          "type": "address"
        },
        {
          "indexed": false,
          "internalType": "address",
          "name": "token",
          "type": "address"
        },
        {
          "indexed": false,
          "internalType": "uint256",
          "name": "amount",
          "type": "uint256"
        }
      ],
      "name": "TransferIn",
      "type": "event"
    },
    {
      "anonymous": false,
      "inputs": [
        {
          "indexed": false,
          "internalType": "uint256",
          "name": "inId",
          "type": "uint256"
        },
        {
          "indexed": false,
          "internalType": "address",
          "name": "validator",
          "type": "address"
        }
      ],
      "name": "TransferInConfirmation",
      "type": "event"
    },
    {
      "anonymous": false,
      "inputs": [
        {
          "indexed": false,
          "internalType": "uint256",
          "name": "inId",
          "type": "uint256"
        },
        {
          "indexed": false,
          "internalType": "address",
          "name": "receiver",
          "type": "address"
        },
        {
          "indexed": false,
          "internalType": "address",
          "name": "token",
          "type": "address"
        },
        {
          "indexed": false,
          "internalType": "uint256",
          "name": "amount",
          "type": "uint256"
        }
      ],
      "name": "TransferInExecution",
      "type": "event"
    },
    {
      "anonymous": false,
      "inputs": [
        {
          "indexed": false,
          "internalType": "uint256",
          "name": "inId",
          "type": "uint256"
        },
        {
          "indexed": false,
          "internalType": "address",
          "name": "validator",
          "type": "address"
        }
      ],
      "name": "TransferInRejection",
      "type": "event"
    },
    {
      "anonymous": false,
      "inputs": [
        {
          "indexed": false,
          "internalType": "uint256",
          "name": "outId",
          "type": "uint256"
        },
        {
          "indexed": false,
          "internalType": "uint256",
          "name": "fromChainID",
          "type": "uint256"
        },
        {
          "indexed": false,
          "internalType": "address",
          "name": "sender",
          "type": "address"
        },
        {
          "indexed": false,
          "internalType": "address",
          "name": "token",
          "type": "address"
        },
        {
          "indexed": false,
          "internalType": "uint256",
          "name": "amount",
          "type": "uint256"
        },
        {
          "indexed": false,
          "internalType": "uint256",
          "name": "fee",
          "type": "uint256"
        },
        {
          "indexed": false,
          "internalType": "uint256",
          "name": "toChainID",
          "type": "uint256"
        },
        {
          "indexed": false,
          "internalType": "address",
          "name": "receiver",
          "type": "address"
        },
        {
          "indexed": false,
          "internalType": "address",
          "name": "receiveToken",
          "type": "address"
        }
      ],
      "name": "TransferOut",
      "type": "event"
    },
    {
      "anonymous": false,
      "inputs": [
        {
          "indexed": true,
          "internalType": "address",
          "name": "oldTreasury",
          "type": "address"
        },
        {
          "indexed": true,
          "internalType": "address",
          "name": "newTreasury",
          "type": "address"
        }
      ],
      "name": "TreasuryChanged",
      "type": "event"
    },
    {
      "anonymous": false,
      "inputs": [
        {
          "indexed": true,
          "internalType": "address",
          "name": "token",
          "type": "address"
        },
        {
          "indexed": false,
          "internalType": "uint256",
          "name": "minReserve",
          "type": "uint256"
        },
        {
          "indexed": false,
          "internalType": "uint256",
          "name": "reserveRatio",
          "type": "uint256"
        },
        {
          "indexed": false,
          "internalType": "bool",
          "name": "enabled",
          "type": "bool"
        }
      ],
      "name": "TreasuryConfigChanged",
      "type": "event"
    },
    {
      "anonymous": false,
      "inputs": [
        {
          "indexed": true,
          "internalType": "address",
          "name": "token",
          "type": "address"
        },
        {
          "indexed": false,
          "internalType": "uint256",
          "name": "amount",
          "type": "uint256"
        },
        {
          "indexed": false,
          "internalType": "uint256",
          "name": "contractBalance",
          "type": "uint256"
        },
        {
          "indexed": false,
          "internalType": "uint256",
          "name": "treasuryBalance",
          "type": "uint256"
        }
      ],
      "name": "TreasuryTransfer",
      "type": "event"
    },
    {
      "anonymous": false,
      "inputs": [
        {
          "indexed": false,
          "internalType": "address",
          "name": "validator",
          "type": "address"
        }
      ],
      "name": "ValidatorAddition",
      "type": "event"
    },
    {
      "anonymous": false,
      "inputs": [
        {
          "indexed": false,
          "internalType": "address",
          "name": "validator",
          "type": "address"
        }
      ],
      "name": "ValidatorRemoval",
      "type": "event"
    },
    {
      "inputs": [],
      "name": "_inID",
      "outputs": [
        {
          "internalType": "uint256",
          "name": "",
          "type": "uint256"
        }
      ],
      "stateMutability": "view",
      "type": "function"
    },
    {
      "inputs": [],
      "name": "_outID",
      "outputs": [
        {
          "internalType": "uint256",
          "name": "",
          "type": "uint256"
        }
      ],
      "stateMutability": "view",
      "type": "function"
    },
    {
      "inputs": [
        {
          "internalType": "address",
          "name": "validator",
          "type": "address"
        }
      ],
      "name": "addValidator",
      "outputs": [],
      "stateMutability": "nonpayable",
      "type": "function"
    },
    {
      "inputs": [
        {
          "internalType": "address",
          "name": "token",
          "type": "address"
        }
      ],
      "name": "autoTransferToTreasury",
      "outputs": [],
      "stateMutability": "nonpayable",
      "type": "function"
    },
    {
      "inputs": [
        {
          "internalType": "address",
          "name": "token",
          "type": "address"
        }
      ],
      "name": "calculateTreasuryTransfer",
      "outputs": [
        {
          "internalType": "bool",
          "name": "canTransfer",
          "type": "bool"
        },
        {
          "internalType": "uint256",
          "name": "transferAmount",
          "type": "uint256"
        },
        {
          "internalType": "uint256",
          "name": "willReserve",
          "type": "uint256"
        },
        {
          "internalType": "uint256",
          "name": "currentBalance",
          "type": "uint256"
        }
      ],
      "stateMutability": "view",
      "type": "function"
    },
    {
      "inputs": [
        {
          "internalType": "address",
          "name": "token",
          "type": "address"
        },
        {
          "internalType": "uint256",
          "name": "toChainID",
          "type": "uint256"
        },
        {
          "components": [
            {
              "internalType": "address",
              "name": "receiveToken",
              "type": "address"
            },
            {
              "internalType": "uint256",
              "name": "fee",
              "type": "uint256"
            },
            {
              "internalType": "uint256",
              "name": "limit",
              "type": "uint256"
            },
            {
              "internalType": "bool",
              "name": "isBurn",
              "type": "bool"
            },
            {
              "internalType": "bool",
              "name": "enabled",
              "type": "bool"
            }
          ],
          "internalType": "struct Bridge.OutConfig",
          "name": "config",
          "type": "tuple"
        }
      ],
      "name": "changeOutConfig",
      "outputs": [],
      "stateMutability": "nonpayable",
      "type": "function"
    },
    {
      "inputs": [
        {
          "internalType": "uint256",
          "name": "required",
          "type": "uint256"
        }
      ],
      "name": "changeValidRequired",
      "outputs": [],
      "stateMutability": "nonpayable",
      "type": "function"
    },
    {
      "inputs": [
        {
          "internalType": "uint256",
          "name": "inId",
          "type": "uint256"
        }
      ],
      "name": "confirmInTransfer",
      "outputs": [],
      "stateMutability": "nonpayable",
      "type": "function"
    },
    {
      "inputs": [
        {
          "internalType": "address",
          "name": "token",
          "type": "address"
        },
        {
          "internalType": "uint256",
          "name": "amount",
          "type": "uint256"
        },
        {
          "internalType": "address",
          "name": "to",
          "type": "address"
        }
      ],
      "name": "emergencyWithdraw",
      "outputs": [],
      "stateMutability": "nonpayable",
      "type": "function"
    },
    {
      "inputs": [
        {
          "internalType": "uint256",
          "name": "",
          "type": "uint256"
        },
        {
          "internalType": "uint256",
          "name": "",
          "type": "uint256"
        }
      ],
      "name": "getInId",
      "outputs": [
        {
          "internalType": "uint256",
          "name": "",
          "type": "uint256"
        }
      ],
      "stateMutability": "view",
      "type": "function"
    },
    {
      "inputs": [
        {
          "internalType": "uint256",
          "name": "toChainID",
          "type": "uint256"
        }
      ],
      "name": "getSupportedTokensOut",
      "outputs": [
        {
          "internalType": "address[]",
          "name": "",
          "type": "address[]"
        }
      ],
      "stateMutability": "view",
      "type": "function"
    },
    {
      "inputs": [
        {
          "internalType": "address",
          "name": "",
          "type": "address"
        }
      ],
      "name": "inTotal",
      "outputs": [
        {
          "internalType": "uint256",
          "name": "",
          "type": "uint256"
        }
      ],
      "stateMutability": "view",
      "type": "function"
    },
    {
      "inputs": [
        {
          "internalType": "uint256",
          "name": "",
          "type": "uint256"
        }
      ],
      "name": "inTransfers",
      "outputs": [
        {
          "internalType": "uint256",
          "name": "inId",
          "type": "uint256"
        },
        {
          "internalType": "address",
          "name": "token",
          "type": "address"
        },
        {
          "internalType": "address",
          "name": "receiver",
          "type": "address"
        },
        {
          "internalType": "uint256",
          "name": "fee",
          "type": "uint256"
        },
        {
          "internalType": "uint256",
          "name": "amount",
          "type": "uint256"
        },
        {
          "internalType": "uint256",
          "name": "fromChainID",
          "type": "uint256"
        },
        {
          "internalType": "uint256",
          "name": "outId",
          "type": "uint256"
        },
        {
          "internalType": "bool",
          "name": "executed",
          "type": "bool"
        },
        {
          "internalType": "uint256",
          "name": "confirmCounter",
          "type": "uint256"
        },
        {
          "internalType": "uint256",
          "name": "rejectCounter",
          "type": "uint256"
        }
      ],
      "stateMutability": "view",
      "type": "function"
    },
    {
      "inputs": [
        {
          "internalType": "uint256",
          "name": "inId",
          "type": "uint256"
        }
      ],
      "name": "isChecked",
      "outputs": [
        {
          "internalType": "bool",
          "name": "",
          "type": "bool"
        }
      ],
      "stateMutability": "view",
      "type": "function"
    },
    {
      "inputs": [
        {
          "internalType": "uint256",
          "name": "inId",
          "type": "uint256"
        },
        {
          "internalType": "address",
          "name": "validator",
          "type": "address"
        }
      ],
      "name": "isConfirmed",
      "outputs": [
        {
          "internalType": "bool",
          "name": "",
          "type": "bool"
        }
      ],
      "stateMutability": "view",
      "type": "function"
    },
    {
      "inputs": [
        {
          "internalType": "uint256",
          "name": "inId",
          "type": "uint256"
        },
        {
          "internalType": "address",
          "name": "validator",
          "type": "address"
        }
      ],
      "name": "isRejected",
      "outputs": [
        {
          "internalType": "bool",
          "name": "",
          "type": "bool"
        }
      ],
      "stateMutability": "view",
      "type": "function"
    },
    {
      "inputs": [
        {
          "internalType": "uint256",
          "name": "",
          "type": "uint256"
        },
        {
          "internalType": "address",
          "name": "",
          "type": "address"
        }
      ],
      "name": "isTokenSupportedOut",
      "outputs": [
        {
          "internalType": "bool",
          "name": "",
          "type": "bool"
        }
      ],
      "stateMutability": "view",
      "type": "function"
    },
    {
      "inputs": [
        {
          "internalType": "address",
          "name": "token",
          "type": "address"
        },
        {
          "internalType": "uint256",
          "name": "toChainID",
          "type": "uint256"
        }
      ],
      "name": "isTokenTransferEnabled",
      "outputs": [
        {
          "internalType": "bool",
          "name": "",
          "type": "bool"
        }
      ],
      "stateMutability": "view",
      "type": "function"
    },
    {
      "inputs": [
        {
          "internalType": "address",
          "name": "",
          "type": "address"
        }
      ],
      "name": "isValidator",
      "outputs": [
        {
          "internalType": "bool",
          "name": "",
          "type": "bool"
        }
      ],
      "stateMutability": "view",
      "type": "function"
    },
    {
      "inputs": [
        {
          "internalType": "address",
          "name": "",
          "type": "address"
        },
        {
          "internalType": "uint256",
          "name": "",
          "type": "uint256"
        }
      ],
      "name": "outConfiguration",
      "outputs": [
        {
          "internalType": "address",
          "name": "receiveToken",
          "type": "address"
        },
        {
          "internalType": "uint256",
          "name": "fee",
          "type": "uint256"
        },
        {
          "internalType": "uint256",
          "name": "limit",
          "type": "uint256"
        },
        {
          "internalType": "bool",
          "name": "isBurn",
          "type": "bool"
        },
        {
          "internalType": "bool",
          "name": "enabled",
          "type": "bool"
        }
      ],
      "stateMutability": "view",
      "type": "function"
    },
    {
      "inputs": [
        {
          "internalType": "address",
          "name": "",
          "type": "address"
        }
      ],
      "name": "outTotal",
      "outputs": [
        {
          "internalType": "uint256",
          "name": "",
          "type": "uint256"
        }
      ],
      "stateMutability": "view",
      "type": "function"
    },
    {
      "inputs": [
        {
          "internalType": "address",
          "name": "token",
          "type": "address"
        },
        {
          "internalType": "uint256",
          "name": "amount",
          "type": "uint256"
        },
        {
          "internalType": "uint256",
          "name": "toChainID",
          "type": "uint256"
        },
        {
          "internalType": "address",
          "name": "receiver",
          "type": "address"
        }
      ],
      "name": "outTransfer",
      "outputs": [],
      "stateMutability": "nonpayable",
      "type": "function"
    },
    {
      "inputs": [
        {
          "internalType": "uint256",
          "name": "",
          "type": "uint256"
        }
      ],
      "name": "outTransfers",
      "outputs": [
        {
          "internalType": "uint256",
          "name": "outId",
          "type": "uint256"
        },
        {
          "internalType": "uint256",
          "name": "fromChainID",
          "type": "uint256"
        },
        {
          "internalType": "address",
          "name": "sender",
          "type": "address"
        },
        {
          "internalType": "address",
          "name": "token",
          "type": "address"
        },
        {
          "internalType": "uint256",
          "name": "amount",
          "type": "uint256"
        },
        {
          "internalType": "uint256",
          "name": "fee",
          "type": "uint256"
        },
        {
          "internalType": "uint256",
          "name": "toChainID",
          "type": "uint256"
        },
        {
          "internalType": "address",
          "name": "receiver",
          "type": "address"
        },
        {
          "internalType": "address",
          "name": "receiveToken",
          "type": "address"
        },
        {
          "internalType": "uint256",
          "name": "receiveAmount",
          "type": "uint256"
        },
        {
          "internalType": "bytes32",
          "name": "signature",
          "type": "bytes32"
        }
      ],
      "stateMutability": "view",
      "type": "function"
    },
    {
      "inputs": [],
      "name": "owner",
      "outputs": [
        {
          "internalType": "address",
          "name": "",
          "type": "address"
        }
      ],
      "stateMutability": "view",
      "type": "function"
    },
    {
      "inputs": [
        {
          "internalType": "uint256",
          "name": "inId",
          "type": "uint256"
        }
      ],
      "name": "rejectInTransfer",
      "outputs": [],
      "stateMutability": "nonpayable",
      "type": "function"
    },
    {
      "inputs": [
        {
          "internalType": "address",
          "name": "validator",
          "type": "address"
        }
      ],
      "name": "removeValidator",
      "outputs": [],
      "stateMutability": "nonpayable",
      "type": "function"
    },
    {
      "inputs": [],
      "name": "renounceOwnership",
      "outputs": [],
      "stateMutability": "nonpayable",
      "type": "function"
    },
    {
      "inputs": [
        {
          "internalType": "address",
          "name": "validator",
          "type": "address"
        },
        {
          "internalType": "address",
          "name": "newValidator",
          "type": "address"
        }
      ],
      "name": "replaceValidator",
      "outputs": [],
      "stateMutability": "nonpayable",
      "type": "function"
    },
    {
      "inputs": [
        {
          "internalType": "uint256",
          "name": "inId",
          "type": "uint256"
        },
        {
          "internalType": "address",
          "name": "receiver",
          "type": "address"
        },
        {
          "internalType": "address",
          "name": "token",
          "type": "address"
        },
        {
          "internalType": "uint256",
          "name": "amount",
          "type": "uint256"
        }
      ],
      "name": "retryTransfer",
      "outputs": [],
      "stateMutability": "nonpayable",
      "type": "function"
    },
    {
      "inputs": [
        {
          "internalType": "address",
          "name": "newTreasury",
          "type": "address"
        }
      ],
      "name": "setTreasury",
      "outputs": [],
      "stateMutability": "nonpayable",
      "type": "function"
    },
    {
      "inputs": [
        {
          "internalType": "address",
          "name": "token",
          "type": "address"
        },
        {
          "internalType": "uint256",
          "name": "minReserve",
          "type": "uint256"
        },
        {
          "internalType": "uint256",
          "name": "reserveRatio",
          "type": "uint256"
        },
        {
          "internalType": "bool",
          "name": "enabled",
          "type": "bool"
        }
      ],
      "name": "setTreasuryConfig",
      "outputs": [],
      "stateMutability": "nonpayable",
      "type": "function"
    },
    {
      "inputs": [
        {
          "components": [
            {
              "internalType": "uint256",
              "name": "toChainID",
              "type": "uint256"
            },
            {
              "internalType": "address",
              "name": "receiver",
              "type": "address"
            },
            {
              "internalType": "address",
              "name": "token",
              "type": "address"
            },
            {
              "internalType": "uint256",
              "name": "amount",
              "type": "uint256"
            },
            {
              "internalType": "uint256",
              "name": "outId",
              "type": "uint256"
            },
            {
              "internalType": "uint256",
              "name": "fromChainID",
              "type": "uint256"
            },
            {
              "internalType": "address",
              "name": "sender",
              "type": "address"
            },
            {
              "internalType": "address",
              "name": "sendToken",
              "type": "address"
            },
            {
              "internalType": "uint256",
              "name": "sendAmount",
              "type": "uint256"
            },
            {
              "internalType": "bytes32",
              "name": "signature",
              "type": "bytes32"
            }
          ],
          "internalType": "struct Bridge.submitParams",
          "name": "params",
          "type": "tuple"
        }
      ],
      "name": "submitInTransfer",
      "outputs": [],
      "stateMutability": "nonpayable",
      "type": "function"
    },
    {
      "inputs": [
        {
          "internalType": "uint256",
          "name": "",
          "type": "uint256"
        },
        {
          "internalType": "uint256",
          "name": "",
          "type": "uint256"
        }
      ],
      "name": "supportedTokensOut",
      "outputs": [
        {
          "internalType": "address",
          "name": "",
          "type": "address"
        }
      ],
      "stateMutability": "view",
      "type": "function"
    },
    {
      "inputs": [
        {
          "internalType": "address",
          "name": "newOwner",
          "type": "address"
        }
      ],
      "name": "transferOwnership",
      "outputs": [],
      "stateMutability": "nonpayable",
      "type": "function"
    },
    {
      "inputs": [],
      "name": "treasury",
      "outputs": [
        {
          "internalType": "address",
          "name": "",
          "type": "address"
        }
      ],
      "stateMutability": "view",
      "type": "function"
    },
    {
      "inputs": [
        {
          "internalType": "address",
          "name": "",
          "type": "address"
        }
      ],
      "name": "treasuryConfigs",
      "outputs": [
        {
          "internalType": "uint256",
          "name": "minReserve",
          "type": "uint256"
        },
        {
          "internalType": "uint256",
          "name": "reserveRatio",
          "type": "uint256"
        },
        {
          "internalType": "bool",
          "name": "enabled",
          "type": "bool"
        }
      ],
      "stateMutability": "view",
      "type": "function"
    },
    {
      "inputs": [
        {
          "internalType": "address",
          "name": "",
          "type": "address"
        }
      ],
      "name": "treasuryTotal",
      "outputs": [
        {
          "internalType": "uint256",
          "name": "",
          "type": "uint256"
        }
      ],
      "stateMutability": "view",
      "type": "function"
    },
    {
      "inputs": [],
      "name": "validRequired",
      "outputs": [
        {
          "internalType": "uint256",
          "name": "",
          "type": "uint256"
        }
      ],
      "stateMutability": "view",
      "type": "function"
    }
  ],
  "bytecode": "0x60806040523480156200001157600080fd5b5060405162002d3838038062002d388339810160408190526200003491620000db565b806001600160a01b0381166200006457604051631e4fbdf760e01b81526000600482015260240160405180910390fd5b6200006f816200008b565b505060018055600d80546001600160a01b03191690556200010d565b600080546001600160a01b038381166001600160a01b0319831681178455604051919092169283917f8be0079c531659141344cd1fd0a4f28419497f9722a3daafe3b4186f6b6457e09190a35050565b600060208284031215620000ee57600080fd5b81516001600160a01b03811681146200010657600080fd5b9392505050565b612c1b806200011d6000396000f3fe608060405234801561001057600080fd5b50600436106102325760003560e01c80639004e82d11610130578063bb736eff116100b8578063eef921451161007c578063eef9214514610754578063f0f44260146107df578063f2fde38b146107f2578063facd743b14610805578063fee324de1461082857600080fd5b8063bb736eff1461062f578063dcbbb05214610638578063df18226d14610701578063e3c5d94714610721578063e75a381b1461074157600080fd5b8063a146a803116100ff578063a146a803146105c9578063a4e7fe23146105f7578063b235173714610600578063b249178614610613578063b77469051461061c57600080fd5b80639004e82d1461046057806395b6b9f41461047357806397e6d4051461054f5780639f4faadf1461059e57600080fd5b80634901c4b8116101be57806361d027b31161018257806361d027b3146103cc57806371087b69146103f7578063715018a61461040a57806380f59a65146104125780638da5cb5b1461044f57600080fd5b80634901c4b81461036d5780634d238c8e1461038057806353149d7214610393578063551512de146103a65780635f323ec2146103b957600080fd5b80631d6f846c116102055780631d6f846c146102d15780632d3a6f72146102e457806340a141ff14610319578063410c18611461032c5780634833f3d11461035a57600080fd5b8063093bb31f146102375780630af9a61c1461024c5780630ff90455146102745780631d6c0c8214610294575b600080fd5b61024a61024536600461265e565b61083b565b005b61025f61025a366004612693565b610889565b60405190151581526020015b60405180910390f35b61028761028236600461265e565b6108ef565b60405161026b91906126bd565b61025f6102a236600461270a565b60008281526007602090815260408083206001600160a01b0385168452600b0190915290205460ff1692915050565b61025f6102df36600461265e565b61095b565b6102f76102f2366004612736565b610991565b604080519415158552602085019390935291830152606082015260800161026b565b61024a610327366004612736565b610ad1565b61034c61033a366004612736565b600f6020526000908152604090205481565b60405190815260200161026b565b61024a610368366004612789565b610b31565b61024a61037b366004612837565b610f4f565b61024a61038e366004612736565b611141565b61024a6103a13660046128fc565b61119d565b61024a6103b4366004612926565b61124a565b61024a6103c7366004612962565b611370565b600d546103df906001600160a01b031681565b6040516001600160a01b03909116815260200161026b565b61024a6104053660046129a6565b6115d7565b61024a611735565b61025f61042036600461270a565b60008281526007602090815260408083206001600160a01b038516845260090190915290205460ff1692915050565b6000546001600160a01b03166103df565b61024a61046e36600461265e565b611749565b6104ec61048136600461265e565b600660208190526000918252604090912080546001820154600283015460038401546004850154600586015496860154600787015460088801546009890154600a90990154979996986001600160a01b0396871698958716979496949593949283169392909116918b565b604080519b8c5260208c019a909a526001600160a01b03988916998b019990995295871660608a0152608089019490945260a088019290925260c0870152831660e08601529091166101008401526101208301526101408201526101600161026b565b61058161055d366004612736565b600e6020526000908152604090208054600182015460029092015490919060ff1683565b60408051938452602084019290925215159082015260600161026b565b61034c6105ac3660046129ee565b600860209081526000928352604080842090915290825290205481565b61025f6105d736600461270a565b600560209081526000928352604080842090915290825290205460ff1681565b61034c600a5481565b61024a61060e366004612a10565b611818565b61034c60015481565b61024a61062a36600461265e565b611c96565b61034c60095481565b6106a961064636600461265e565b60076020819052600091825260409091208054600182015460028301546003840154600485015460058601546006870154978701546008880154600a9098015496986001600160a01b0396871698959096169693959294919360ff90911691908a565b604080519a8b526001600160a01b03998a1660208c015297909816968901969096526060880194909452608087019290925260a086015260c0850152151560e08401526101008301526101208201526101400161026b565b61034c61070f366004612736565b600b6020526000908152604090205481565b61034c61072f366004612736565b600c6020526000908152604090205481565b61024a61074f366004612736565b611cd1565b6107a9610762366004612693565b6003602081815260009384526040808520909152918352912080546001820154600283015492909301546001600160a01b0390911692919060ff8082169161010090041685565b604080516001600160a01b039096168652602086019490945292840191909152151560608301521515608082015260a00161026b565b61024a6107ed366004612736565b611fd7565b61024a610800366004612736565b612087565b61025f610813366004612736565b60026020526000908152604090205460ff1681565b6103df6108363660046129ee565b6120c2565b6108436120fa565b600180549082905560408051828152602081018490527fdd7c0dd2de894f9cccfd27f17f4f7390a796fb28e4b1d7317e0e758fff8e672e91015b60405180910390a15050565b6001600160a01b038216600090815260036020818152604080842085855290915282200154610100900460ff1680156108e657506001600160a01b0383811660009081526003602090815260408083208684529091529020541615155b90505b92915050565b60008181526004602090815260409182902080548351818402810184019094528084526060939283018282801561094f57602002820191906000526020600020905b81546001600160a01b03168152600190910190602001808311610931575b50505050509050919050565b6000818152600760205260408120600a01541580156108e957505060015460009182526007602052604090912060080154101590565b6001600160a01b0381166000818152600e602090815260408083208151606081018352815481526001820154938101939093526002015460ff16151582820152516370a0823160e01b8152306004820152919283928392839290916370a0823190602401602060405180830381865afa158015610a12573d6000803e3d6000fd5b505050506040513d601f19601f82011682018060405250810190610a369190612a56565b915080604001511580610a525750600d546001600160a01b0316155b15610a67576000808394509450945050610aca565b6000612710826020015184610a7c9190612a85565b610a869190612a9c565b82519091508111610a98578151610a9a565b805b82519094508110801590610aad57508383115b955085610abb576000610ac5565b610ac58484612abe565b945050505b9193509193565b610ad96120fa565b6001600160a01b038116600081815260026020908152604091829020805460ff1916905590519182527f6a3ba09e7ab344aeb6790b83cb8c271b874e78a1f400938c91ae9afdb9d494b391015b60405180910390a150565b3360009081526002602052604090205460ff16610b695760405162461bcd60e51b8152600401610b6090612ad1565b60405180910390fd5b60a081015146808203610b8e5760405162461bcd60e51b8152600401610b6090612af8565b825146808214610bd55760405162461bcd60e51b815260206004820152601260248201527136bab9ba1031bab93932b73a1031b430b4b760711b6044820152606401610b60565b600085608001518660a001518760c001518860e001518961010001518a600001518b602001518c60400151604051602001610c17989796959493929190612b25565b6040516020818303038152906040528051906020012090508086610120015114610c795760405162461bcd60e51b81526020600482015260136024820152721cda59db985d1d5c99481b9bdd08195c5d585b606a1b6044820152606401610b60565b60a0860151600090815260086020908152604080832060808a0151845290915281205490819003610e1a57600a8054906000610cb483612b69565b9190505550600a549050600060076000838152602001908152602001600020905081816000018190555087604001518160010160006101000a8154816001600160a01b0302191690836001600160a01b0316021790555087602001518160020160006101000a8154816001600160a01b0302191690836001600160a01b03160217905550876060015181600401819055508760a0015181600501819055508760800151816006018190555081600860008a60a00151815260200190815260200160002060008a608001518152602001908152602001600020819055507f4cad99516c397cf67dfa0cdfdfeda8d65ed4a6254e21e1c775f389ae3cd1470d8860a001518960800151848b602001518c604001518d60600151604051610e0c96959493929190958652602086019490945260408501929092526001600160a01b03908116606085015216608083015260a082015260c00190565b60405180910390a150610f3d565b6040808801516000838152600760205291909120600101546001600160a01b03908116911614610e7e5760405162461bcd60e51b815260206004820152600f60248201526e1d1bdad95b881b9bdd08195c5d585b608a1b6044820152606401610b60565b602080880151600083815260079092526040909120600201546001600160a01b03908116911614610ee65760405162461bcd60e51b81526020600482015260126024820152711c9958d95a5d995c881b9bdd08195c5d585b60721b6044820152606401610b60565b606087015160008281526007602052604090206004015414610f3d5760405162461bcd60e51b815260206004820152601060248201526f185b5bdd5b9d081b9bdd08195c5d585b60821b6044820152606401610b60565b610f4681612127565b50505050505050565b610f576120fa565b8146808203610f785760405162461bcd60e51b8152600401610b6090612af8565b6001600160a01b0385811660009081526003602081815260408084208985528252928390209182018054885184546001600160a01b0319169616959095178355908701516001830155918601516002909101556060850151608086015161ffff19841691151561ff00191691909117610100821580158202929092179093559190920460ff169190611008575080155b156110985760008581526005602090815260408083206001600160a01b038a16845290915290205460ff166110935760008581526004602090815260408083208054600180820183559185528385200180546001600160a01b0319166001600160a01b038c1690811790915589855260058452828520908552909252909120805460ff191690911790555b6110ef565b83608001511580156110a75750805b156110ef5760008581526004602052604090206110c4908761222f565b60008581526005602090815260408083206001600160a01b038a1684529091529020805460ff191690555b84866001600160a01b03167f66222645539139c5b1766dfe48c7e504e3c7506c906e43adf39cc81eaa9454ef8660800151604051611131911515815260200190565b60405180910390a3505050505050565b6111496120fa565b6001600160a01b038116600081815260026020908152604091829020805460ff1916600117905590519182527fd7493443bf98d18c85ad2cefd9efe14e9359eeba751fd045e64efd29896a70029101610b26565b6111a56120fa565b6001600160a01b038281166000908152600260209081526040808320805460ff1990811690915593851680845292819020805490941660011790935591519081527fd7493443bf98d18c85ad2cefd9efe14e9359eeba751fd045e64efd29896a7002910160405180910390a16040516001600160a01b03831681527f6a3ba09e7ab344aeb6790b83cb8c271b874e78a1f400938c91ae9afdb9d494b39060200161087d565b6112526120fa565b6040516370a0823160e01b815230600482015282906001600160a01b038516906370a0823190602401602060405180830381865afa158015611298573d6000803e3d6000fd5b505050506040513d601f19601f820116820180604052508101906112bc9190612a56565b10156112f75760405162461bcd60e51b815260206004820152600a6024820152690dcdee840cadcdeeaced60b31b6044820152606401610b60565b60405163a9059cbb60e01b81526001600160a01b0382811660048301526024820184905284169063a9059cbb906044016020604051808303816000875af1158015611346573d6000803e3d6000fd5b505050506040513d601f19601f8201168201806040525081019061136a9190612b82565b50505050565b6113786120fa565b6000848152600760208190526040909120015460ff16156113ce5760405162461bcd60e51b815260206004820152601060248201526f185b1c9958591e48195e1958dd5d195960821b6044820152606401610b60565b6040516370a0823160e01b815230600482015281906001600160a01b038416906370a0823190602401602060405180830381865afa158015611414573d6000803e3d6000fd5b505050506040513d601f19601f820116820180604052508101906114389190612a56565b101561147e5760405162461bcd60e51b81526020600482015260156024820152743737ba103430bb329032b737bab3b4103a37b5b2b760591b6044820152606401610b60565b6000848152600760208190526040918290209081018054600160ff1990911681179091556002820180546001600160a01b03199081166001600160a01b03898116918217909355928401805490911691871691821790556004928301859055925163a9059cbb60e01b8152918201526024810183905263a9059cbb906044016020604051808303816000875af115801561151c573d6000803e3d6000fd5b505050506040513d601f19601f820116820180604052508101906115409190612b82565b506001600160a01b0382166000908152600c6020526040902054611565908290612ba6565b6001600160a01b038381166000818152600c60209081526040918290209490945580518881529287169383019390935291810191909152606081018290527f3ebe4c6205b5e0dfebd74abf61991b68b5a9de9e55076525fb702281aba82282906080015b60405180910390a150505050565b6115df6120fa565b6127108211156116315760405162461bcd60e51b815260206004820181905260248201527f7265736572766520726174696f2063616e6e6f742065786365656420313030256044820152606401610b60565b600083118061163e575080155b61169c5760405162461bcd60e51b815260206004820152602960248201527f6d696e2072657365727665206d75737420626520706f736974697665207768656044820152681b88195b98589b195960ba1b6064820152608401610b60565b604080516060808201835285825260208083018681528515158486018181526001600160a01b038b166000818152600e86528890209651875592516001870155516002909501805460ff1916951515959095179094558451888152918201879052938101929092527f4bcabce4b0e7246e7b76777e00d27dabe90f522d274671b7eedd331369b66eba910160405180910390a250505050565b61173d6120fa565b611747600061233d565b565b3360009081526002602052604090205460ff166117785760405162461bcd60e51b8152600401610b6090612ad1565b6000818152600760209081526040808320338452600b0190915290205460ff1680611814576000828152600760208181526040808420338552600b81018352908420805460ff19166001179055858452919052600a018054916117da83612b69565b9091555050604080518381523360208201527fe3f3baf5b51b3ef5fb211964585a64f5c7ee310261ff813d5a4c6e13cba6726b910161087d565b5050565b81468082036118395760405162461bcd60e51b8152600401610b6090612af8565b6001600160a01b038087166000908152600360209081526040808320888452909152902080549091166118a35760405162461bcd60e51b81526020600482015260126024820152713737ba1030b63637bb903a3930b739b332b960711b6044820152606401610b60565b6003810154610100900460ff166118fc5760405162461bcd60e51b815260206004820152601760248201527f746f6b656e207472616e736665722064697361626c65640000000000000000006044820152606401610b60565b8060010154861161193f5760405162461bcd60e51b815260206004820152600d60248201526c6c657373207468616e2066656560981b6044820152606401610b60565b80600201548611156119855760405162461bcd60e51b815260206004820152600f60248201526e1b5bdc99481d1a185b881b1a5b5a5d608a1b6044820152606401610b60565b6040516323b872dd60e01b8152336004820152306024820152604481018790526001600160a01b038816906323b872dd906064016020604051808303816000875af11580156119d8573d6000803e3d6000fd5b505050506040513d601f19601f820116820180604052508101906119fc9190612b82565b611a375760405162461bcd60e51b815260206004820152600c60248201526b3a3930b739b332b91032b93960a11b6044820152606401610b60565b600381015460ff1615611a9f57604051630852cd8d60e31b8152600481018790526001600160a01b038816906342966c6890602401600060405180830381600087803b158015611a8657600080fd5b505af1158015611a9a573d6000803e3d6000fd5b505050505b6009805446916000611ab083612b69565b909155505060095460008181526006602081905260409091208281556001808201859055600282018054336001600160a01b03199182161790915560038301805482166001600160a01b038f811691909117909155600484018d9055918701805460058501559383018b905560078301805482168b841617905586546008840180549190931691161790559054611b47908a612abe565b600980830191909155548454604051611b799291869133918f918f918f918f916001600160a01b031690602001612b25565b60408051601f198184030181529181528151602092830120600a8401556001600160a01b038c166000908152600b909252902054611bb8908a90612ba6565b6001600160a01b038b81166000818152600b60209081526040918290209490945560058501548854825188815295860189905233868401526060860193909352608085018e905260a085015260c084018c90528a831660e08501529116610100830152517f031758eba572a89e462cda6992d6b6ed8755f4c4d432b242a95cfccc0b38f8e8918190036101200190a1600d546001600160a01b031615801590611c7c57506001600160a01b038a166000908152600e602052604090206002015460ff165b15611c8a57611c8a8a611cd1565b50505050505050505050565b3360009081526002602052604090205460ff16611cc55760405162461bcd60e51b8152600401610b6090612ad1565b611cce81612127565b50565b600d546001600160a01b0316611d1c5760405162461bcd60e51b815260206004820152601060248201526f1d1c99585cdd5c9e481b9bdd081cd95d60821b6044820152606401610b60565b6001600160a01b0381166000908152600e60209081526040918290208251606081018452815481526001820154928101929092526002015460ff16151591810182905290611dbc5760405162461bcd60e51b815260206004820152602760248201527f7472656173757279207472616e73666572206e6f7420656e61626c656420666f60448201526639103a37b5b2b760c91b6064820152608401610b60565b6040516370a0823160e01b81523060048201526000906001600160a01b038416906370a0823190602401602060405180830381865afa158015611e03573d6000803e3d6000fd5b505050506040513d601f19601f82011682018060405250810190611e279190612a56565b90506000612710836020015183611e3e9190612a85565b611e489190612a9c565b9050600083600001518211611e5e578351611e60565b815b84519091508210801590611e7357508083115b15611fd0576000611e848285612abe565b600d5460405163a9059cbb60e01b81526001600160a01b0391821660048201526024810183905291925087169063a9059cbb906044016020604051808303816000875af1158015611ed9573d6000803e3d6000fd5b505050506040513d601f19601f82011682018060405250810190611efd9190612b82565b611f495760405162461bcd60e51b815260206004820152601860248201527f7472656173757279207472616e73666572206661696c656400000000000000006044820152606401610b60565b6001600160a01b0386166000908152600f602052604081208054839290611f71908490612ba6565b90915550506001600160a01b0386166000818152600f60209081526040918290205482518581529182018690528183015290517fdfced8b7b9acd48b1b8a9d252e7eecaff4d87f402fce3c66a581ce0eae74a6189181900360600190a2505b5050505050565b611fdf6120fa565b6001600160a01b0381166120355760405162461bcd60e51b815260206004820152601f60248201527f74726561737572792063616e6e6f74206265207a65726f2061646472657373006044820152606401610b60565b600d80546001600160a01b038381166001600160a01b0319831681179093556040519116919082907f8c3aa5f43a388513435861bf27dfad7829cd248696fed367c62d441f6295449690600090a35050565b61208f6120fa565b6001600160a01b0381166120b957604051631e4fbdf760e01b815260006004820152602401610b60565b611cce8161233d565b600460205281600052604060002081815481106120de57600080fd5b6000918252602090912001546001600160a01b03169150829050565b6000546001600160a01b031633146117475760405163118cdaa760e01b8152336004820152602401610b60565b6000818152600760205260409020600a0154156121795760405162461bcd60e51b815260206004820152601060248201526f185b1c9958591e481c995a9958dd195960821b6044820152606401610b60565b600081815260076020908152604080832033845260090190915290205460ff1680611814576000828152600760208181526040808420338552600981018352908420805460ff191660011790558584529190526008018054916121db83612b69565b9091555050604080518381523360208201527fe420cc80a898ce7e97248ec8a1dc0a25bbcd41c4ba0c64ce325140a2d8915313910160405180910390a16122218261095b565b15611814576118148261238d565b60005b825481101561233857816001600160a01b031683828154811061225757612257612bb9565b6000918252602090912001546001600160a01b031603612326578254839061228190600190612abe565b8154811061229157612291612bb9565b9060005260206000200160009054906101000a90046001600160a01b03168382815481106122c1576122c1612bb9565b9060005260206000200160006101000a8154816001600160a01b0302191690836001600160a01b03160217905550828054806122ff576122ff612bcf565b600082815260209020810160001990810180546001600160a01b0319169055019055505050565b8061233081612b69565b915050612232565b505050565b600080546001600160a01b038381166001600160a01b0319831681178455604051919092169283917f8be0079c531659141344cd1fd0a4f28419497f9722a3daafe3b4186f6b6457e09190a35050565b600081815260076020819052604090912060018101546002820154600483015492909301546001600160a01b0391821693909116919060ff16156124065760405162461bcd60e51b815260206004820152601060248201526f185b1c9958591e48195e1958dd5d195960821b6044820152606401610b60565b6000848152600760205260409020600a0154156124585760405162461bcd60e51b815260206004820152601060248201526f185b1c9958591e481c995a9958dd195960821b6044820152606401610b60565b6040516370a0823160e01b815230600482015281906001600160a01b038516906370a0823190602401602060405180830381865afa15801561249e573d6000803e3d6000fd5b505050506040513d601f19601f820116820180604052508101906124c29190612a56565b10156125085760405162461bcd60e51b81526020600482015260156024820152743737ba103430bb329032b737bab3b4103a37b5b2b760591b6044820152606401610b60565b60008481526007602081905260409182902001805460ff191660011790555163a9059cbb60e01b81526001600160a01b0383811660048301526024820183905284169063a9059cbb906044016020604051808303816000875af1158015612573573d6000803e3d6000fd5b505050506040513d601f19601f820116820180604052508101906125979190612b82565b6125d25760405162461bcd60e51b815260206004820152600c60248201526b3a3930b739b332b91032b93960a11b6044820152606401610b60565b6001600160a01b0383166000908152600c60205260409020546125f6908290612ba6565b6001600160a01b038481166000818152600c60209081526040918290209490945580518881529286169383019390935291810191909152606081018290527f3ebe4c6205b5e0dfebd74abf61991b68b5a9de9e55076525fb702281aba82282906080016115c9565b60006020828403121561267057600080fd5b5035919050565b80356001600160a01b038116811461268e57600080fd5b919050565b600080604083850312156126a657600080fd5b6126af83612677565b946020939093013593505050565b6020808252825182820181905260009190848201906040850190845b818110156126fe5783516001600160a01b0316835292840192918401916001016126d9565b50909695505050505050565b6000806040838503121561271d57600080fd5b8235915061272d60208401612677565b90509250929050565b60006020828403121561274857600080fd5b6108e682612677565b604051610140810167ffffffffffffffff8111828210171561278357634e487b7160e01b600052604160045260246000fd5b60405290565b6000610140828403121561279c57600080fd5b6127a4612751565b823581526127b460208401612677565b60208201526127c560408401612677565b6040820152606083013560608201526080830135608082015260a083013560a08201526127f460c08401612677565b60c082015261280560e08401612677565b60e08201526101008381013590820152610120928301359281019290925250919050565b8015158114611cce57600080fd5b600080600083850360e081121561284d57600080fd5b61285685612677565b93506020850135925060a0603f198201121561287157600080fd5b5060405160a0810181811067ffffffffffffffff821117156128a357634e487b7160e01b600052604160045260246000fd5b80604052506128b460408601612677565b8152606085013560208201526080850135604082015260a08501356128d881612829565b606082015260c08501356128eb81612829565b608082015292959194509192509050565b6000806040838503121561290f57600080fd5b61291883612677565b915061272d60208401612677565b60008060006060848603121561293b57600080fd5b61294484612677565b92506020840135915061295960408501612677565b90509250925092565b6000806000806080858703121561297857600080fd5b8435935061298860208601612677565b925061299660408601612677565b9396929550929360600135925050565b600080600080608085870312156129bc57600080fd5b6129c585612677565b9350602085013592506040850135915060608501356129e381612829565b939692955090935050565b60008060408385031215612a0157600080fd5b50508035926020909101359150565b60008060008060808587031215612a2657600080fd5b612a2f85612677565b93506020850135925060408501359150612a4b60608601612677565b905092959194509250565b600060208284031215612a6857600080fd5b5051919050565b634e487b7160e01b600052601160045260246000fd5b80820281158282048414176108e9576108e9612a6f565b600082612ab957634e487b7160e01b600052601260045260246000fd5b500490565b818103818111156108e9576108e9612a6f565b6020808252600d908201526c3737ba103b30b634b230ba37b960991b604082015260600190565b60208082526013908201527231b0b713ba1031bab93932b73a1031b430b4b760691b604082015260600190565b97885260208801969096526001600160a01b0394851660408801529284166060870152608086019190915260a0850152811660c08401521660e08201526101000190565b600060018201612b7b57612b7b612a6f565b5060010190565b600060208284031215612b9457600080fd5b8151612b9f81612829565b9392505050565b808201808211156108e9576108e9612a6f565b634e487b7160e01b600052603260045260246000fd5b634e487b7160e01b600052603160045260246000fdfea264697066735822122058f58917dec5ab6cd35cb03c783183c1614ec0a85124fc8f21f529a6976104bb64736f6c63430008140033",
  "linkReferences": {},
  "deployedLinkReferences": {}
}